:020000020000FC
:10000000C2C21895189518951895189518951895B1
:1000100018951895189518951895189521C2189542
:1000200018951895189518951895D1C01895189584
:100030001895189501020101003F01B401CC01059A
:0B0040000000015C0717000501000034
:10004C0040E0B0D2013039F055985D9A04E64D99F4
:10005C0015C00A95E1F71AD0B6D23A9A429A0FEF28
:10006C001CE701501040E9F700C0000042980FE770
:10007C001EE301501040E9F700C000000ED0F7FD60
:10008C0003C000831183228314D028C141E08DD298
:10009C0044E09DD200E040E0089505E011E0E4E387
:1000AC00F0E045E050E026D344E07FD2EAE0F1E016
:1000BC00089532D2EAE0F1E001811281CAD0C1D1B7
:1000CC005CC19A938A9344EF51E02AEF30E002E04E
:1000DC002FD180E090E08C01000F111FF801E75C3C
:1000EC00FF4F05911491202F212B11F0F801099548
:1000FC00A89501968C0143E050E09AD2842F4423BA
:10010C0049F705B7016005BF8895000000000000A5
:10011C000000000072D1DECF9A938A9380910A017D
:10012C0090E001968C0142E050E082D240930A01AB
:10013C0000910A0144E047D2C0D1C6D100910A0116
:10014C00002319F00A9531F00AC04AEF50E09A01E9
:10015C0002E004C04AEF50E09A0104E0E9D0899132
:10016C009991089506E200937C000CEC00937A00C0
:10017C0008958A938FB7F89400910001002369F4D5
:10018C0001E00093000128EE33E000E050D1009133
:10019C0064000E7F00936400E5DF8FBF89910895A2
:1001AC001FB7F89400917A000F7700937A000091B2
:1001BC00640001600093640000E0009300011FBF25
:1001CC0008958A93FA93EA933A922A921A920A928F
:1001DC007A936A935A934A933A932A931A930A936B
:1001EC008FB7009179000093030101E000930101A6
:1001FC00D7DF8FBF09911991299139914991599163
:10020C00699179910990199029903990E991F99116
:10021C0089911895FFB7F89430E0212F2695102F6F
:10022C00179500E0079543E151E060E070E013D2D0
:10023C0000930201FFBF08952FB7F89400910301BA
:10024C0010910201011710F401E001C000E02FBF72
:10025C000895E0E0F1E021E0208320E02183248375
:10026C00D9DF28EC30E000E0E2D020E335E701E014
:10027C00DEC000910001002351F000E0D4D0012B2E
:10028C0031F48EDF00910101002309F472DF01E0EB
:10029C00CAD0012B11F520E335E701E0C8D000915D
:1002AC00040110E00F5F1F4F48E750E0C1D14093AD
:1002BC000401009104014EE195D1442349F4BCDFC3
:1002CC00002331F04AEF50E026E930E003E030D073
:1002DC0000910401002309F44CDF08951FB7F89432
:1002EC003A9A429800E000930D01009310011FBF51
:1002FC0008953A9A429A01E00093100110910E0170
:10030C0012D095C03A9A4298EDE0F1E000E00383F8
:10031C000081023028F00A950083128104D087C036
:10032C0000E00083089502E3109F900102E008951D
:10033C009A938A93602F8901CA0160930D0142E35D
:10034C0050E05ED100930E0142E350E08C0158D195
:10035C0000930F01CEDF89919991089500910D01C1
:10036C00002351F002E05FD0012B31F40091100119
:10037C00002309F0C7CFBDDF08951FB7F894559837
:10038C005D9A00E0009311011FBF08954D990DC0B7
:10039C0000911101002381F403E045D0012B61F49D
:1003AC00BBDE01E000931101089528EB3BE003E074
:1003BC003ED000E00093110108952FB718D00C5FC8
:1003CC001F4F008311832FBF08954FB710D020917A
:1003DC000A01222339F423E0219F302D209F310D77
:1003EC00002D132F20E0208321834FBF0895F89414
:1003FC00E2E1F1E0008111810895E7DF202F212B4C
:10040C0089F0E4E1F1E024E0408151810417150703
:10041C0018F4401B510B02C040E050E04193519343
:10042C002A9591F7089507D000811181089503D082
:10043C0020833183089512E0019FF001EC5EFE4FA2
:10044C000895E4E1F1E024E000E0019301932A95A2
:10045C00E1F708958A93FA93EA933A922A921A92C0
:10046C000A927A936A935A934A933A932A931A93D9
:10047C000A938FB718B1116001E0212F202715D0F6
:10048C000000000012D099DF8FBF099119912991BA
:10049C0039914991599169917991099019902990C3
:1004AC003990E991F9918991189518B928B900D02A
:1004BC000000000018B928B908951FB7F89400E09F
:1004CC0000936E001FBF08958A938FB7F89404E0D1
:1004DC0010910A01112309F40CE012E014BD15BDB2
:1004EC00402F60E070E000E81EE330E0149F102D18
:1004FC00212D049F002D110D261F361F48EE53E0B1
:10050C00CDD00A9507BD00E008BD06BD02E0009302
:10051C006E008FBF899108958A938FB7F894CDDFC1
:10052C003A9A4298D1DF8FBF89910895F89400E8E8
:10053C0000BF00E004B90FEF05B900E007B90AEFFE
:10054C0008B905E007B900E00AB90FEF0BB900E0F4
:10055C000DBB00936E0000936F00009370000FECC6
:10056C000093640000E003BF6BDD78940895DEDF38
:10057C00A8DD00E010E00895EAC00BE20DBF01E039
:10058C000EBFCCE6D1E0B9D0002309F0C6D0EFDF26
:10059C0028D0F2CFF999FECF08954395FBDF41BDEA
:1005AC00F89A0895FBDF00B50895F8DF00B5F5DF84
:1005BC0010B5F3DF20B50895439541BDF894FA9A30
:1005CC00F99A0FBE08950FB6E5DF00BDF6CF0FB652
:1005DC00E1DF00BDF2DFDEDF10BDEEDFDBDF20BDD3
:1005EC00EBCFCACF0024E8E0EA9532F0001F001CE4
:1005FC000416D0F3041AF8CF001F402D009508956F
:10060C0000241124EFE0001F111F001C111C041604
:10061C00150610F0041A150AEA95AAF7001F111F07
:10062C00A00100951095089551954195504008955D
:10063C00FF27552312F4F160F7DF112312F4F09524
:10064C0006D0DEDFF0FD03D0F1FDEECF089511955D
:10065C00019510400895002411241001E0E2EA9560
:10066C0092F0001F111F221F331F001C111C221C93
:10067C00331C041615062606370688F3041A150AC9
:10068C00260A370AECCF001F111F221F331FA001AF
:10069C00B10100951095209530950895FF2777238B
:1006AC0012F4F16014D0332312F4F09508D0D3DF98
:1006BC00F69508F404D0F69508F409C00895309521
:1006CC002095109501951F4F2F4F3F4F0895709512
:1006DC006095509541955F4F6F4F7F4F0895AF9345
:1006EC00BF93D80105900D9241505040D9F7BF915E
:1006FC00AF91089517FD0895F2CF01E0089520E021
:10070C0006D0E9F70895259102D0E9F708952D93C5
:10071C0001501040202F212B08958FE390E0FC0115
:10072C0005911491FC013296A591B491FC0134967B
:10073C0025913491422F432B19F0F901E4DF01C0CC
:10074C00DEDF069610E08B34910748F30895FFCF57
:05075C00000000FF0099
:0400000300000000F9
:00000001FF
