:020000020000FC
:100000000C94C92C18951895189518950C9466128F
:10001000189518950C9466121895189518951895BA
:10002000189518950C947F1C189518951895189587
:1000300018951895189518950C942F1C18951895C7
:10004000189518950C945B051895189518951895A2
:10005000189518950C942C091895189518951895BD
:100060000C94690618951895010101010050109231
:10007000099705CA06F1199315860F56128516734E
:10008000138C250E11101C10110E0000000E111CF7
:10009000110E000A000E0404040E00000A000C04F5
:1000A000040E00040E111113171F1F010204081083
:1000B000204009494E434F52524543540946554E3C
:1000C0004354494F4E2102000A03000105010A066C
:1000D000010108020A09020110030A1103011304B5
:1000E0000A14040116050A17050158023C000A000B
:1000F0000100020305060A0B0D0E000001000B00B3
:1001000012001D0027003000340037003E00480078
:10011000550060006D0074007A008800900098001F
:10012000A400AD00B900C600D200DB00EB00FB006C
:1001300009010E011D0126012E0134013D01450179
:1001400050015701610167017001770183018B0143
:100150009201A001A901B101B901BE01C601CE0100
:10016000D601E201E901F801020211021E02280291
:100170003202380242024C025602650272027D02CD
:10018000850290029902A002A802B202BB02C60236
:10019000CD02D402DB02DE02E202E902F102F60243
:1001A000FD02010306030B0312031B0323032A03AF
:1001B00032033503390341034903510356036503F1
:1001C00068036C036F03730377037B037D037F0373
:1001D00081038303850390039803A503B203C1033E
:1001E000C903D603E503F303FF03080412041A044A
:1001F00021042A0430043704420447044C04560402
:1002000060046B0474047E0486048F0497049E04C7
:10021000A704B104000942AEA84FA74845484F06BD
:100220004FACA5A04B410A434F585041484548A503
:10023000450942C3BABBC6C065BD6F0842BABBC65A
:10024000C065BD6F0348455402E041064FBFC0651D
:10025000BFC309486163BF706FB9BAB80C4FB263CE
:10026000BB79B6B8B361BDB8650AA5BDE46F70BC13
:1002700061E5B8C70CE061BF6120B820B37065BC10
:10028000C706A765BFBD656505B37065BCC70D41F1
:10029000B3BF6FBC61BFB8C06563BAB807A9BA7015
:1002A00061B8BD6107A86FE363C065BF0BBE6F6334
:1002B00065BFB8BF65BB65B908E065BF65BAE5B89D
:1002C000C70BBD61BE7061B3BB65BDB8C70CA0658F
:1002D000B720E365BF65BAE5B8B80BE065BBB8BF4A
:1002E000C420BD61203208A5BCB8BF61E5B8C70F06
:1002F000A86FBBBD61C720E365BF65BAE5B8C70F8E
:1003000043BC65C161BDBDC3B9207065B6B8BC0D45
:10031000A5BDB36570BFB8706FB361BFC40463C0DF
:1003200065BF0E427065BCC720E365BF65BAE5B81E
:10033000B808AFBA6FBD6FBCB8C707C5BD6570B4AC
:10034000B8B8055065B6B8BC08C5BA6FBD6FBCB8C3
:10035000B8074DB8BDB8BC79BC0A48652063C0B8C1
:10036000BF61BFC406B320BC65BDC6094FBFBABBE1
:10037000C6C061BFC405C5BA7061BD084D61BA632E
:10038000B8BC79BC06A86570B86FE30BB265B7E37B
:1003900065B963BFB3B8C7075061B26FC061C70624
:1003A000BD65E365BBC70DA82042204320AB20A854
:1003B00020432042085061B26FBF6165BC0763658E
:1003C000B46FE3BDC7075061B26FC0B8B904E3654D
:1003D000BDC407323420C061636107312063BC654E
:1003E000BD6107322063BC65BDC30B6320BE657071
:1003F0006570C3B36FBC06A861706FBBC40E61E3C8
:10040000BCB8BDB863BF7061BF6F706109BC65BD2A
:1004100065E3B66570610E5465BA79E6B8B920BE79
:1004200061706FBBC40C486FB3C3B920BE61706FFD
:10043000BBC409A86FB3BF6F70B8BF6509A5BDBFC6
:100440006570E465B9630543B2706F630963C065A5
:10045000BFC0B8BA6FB309A461B36FE363BAB8653C
:1004600009BD6163BF706FB9BAB80E4FC0B863BF42
:10047000BA6120E361BDBDC3780CA86FBBBDC3B931
:100480002063B2706F630AA5B7B3BB65C065BDB822
:100490006507B261BF617065B80AA86F6365BFB8D0
:1004A000BF65BBB8086379BCBC6170BD6F06B7613E
:1004B00020C0616307B76120E365BDC409B761204F
:1004C000BD65E365BBC608B76120BC6563C7E50AC7
:1004D000A8657065BA70C3BFB8C706426FC1BB6F6D
:1004E0003A0642C3C1BB6F3A06426365B46F3A0233
:1004F00042780342C37806B1BDB36170C407AA65F0
:10050000B37061BBC4044D6170BF0641BE7065BB72
:10051000C4034D61B904A5C6BDC404A5C6BBC406C9
:1005200041B3B47963BF084365BDBFC7B270C407A8
:100530004FBABFC7B270C406486FC7B270C407E0F5
:1005400065BA61B270C402BC63036365BA075461E3
:10055000B9BC6179BF0743BC65BD6120310743BCAD
:1005600065BD612032044FB265E30E42B365E3B866
:10057000BF6520BE61706FBBC40242780342C3787E
:10058000024370034D6178034D696E03A8657001E5
:10059000AB01E00148014D01430A4B6FBBB8C06598
:1005A00063BFB36F0763B2706F636FB30CA86570FE
:1005B00065B761B47079B7BAB80C43B2706F632095
:1005C000E361BDBDC3780E43B2706F6320BD61634C
:1005D000BF706F65BA07A86FBEC3BF6FBA0CB3B365
:1005E0006FE36120BE61706FBBC70E436570B8B921
:1005F000BDC3B920BD6FBC65700DA46170C7E32099
:10060000B261BF617065B80BE0B861B4BD6F63BF24
:10061000B8BA6108E361BFC0B8BA6FB309A86FE3A5
:1006200063B365BFBA610742B8E3B665BFC30642AC
:10063000B8E3B665BF086F63BD6FB3BD6FB905BBE7
:1006400065B3C3B906BE7061B3C3B90A5B4F544BFF
:10065000A7B0AB45485D0443C02E310443C02E32E1
:100660000943C065BFC0B8BA20310943C065BFC0E7
:10067000B8BA20320A41B47065B461E5B8C73A0827
:10068000B3786FE3C7E6B86509B3C3786FE3C7E62D
:10069000B86507637065E3BD656508BC61BA63B89A
:1006A000BC79BC07BCB8BDB8BC79BC0643E3B3B8E1
:1006B000B43A08A46163BF61B3BA6109B3C3BABBFA
:1006C000C6C065BD610B63BF61BDE36170BFBD6145
:1006D000C70000004726001E2A00D61E00B81D00D5
:1006E000B81D05B81D08B81D10B81D14B81D18B8E0
:1006F0001D1E0B2121B81D25B81D29B81D30B81DA0
:1007000033B81D3817213D26214335214649214B59
:1007100062214E312553862656B81D59B81D5DB845
:100720001D60B81D63B81D66B81D69B81D6DB81D84
:1007300073B81D76492179161E001221001221017D
:10074000122102202100202101202102202103204A
:1007500021042D21002D2101712200402100402182
:1007600001402102402103BD22000E230057210039
:100770005721018F21008F21018F21028F210398A2
:1007800024009824019C24019C24029C24039C2482
:1007900004AC2000F71E001F1F011F1F021F1F03B4
:1007A0001F1F041F1F051F1F069A240055250055F3
:1007B0002501552502552503432500B7240013259F
:1007C00000382500382501F52A00F52A01F52A020E
:1007D000972600972601050800060900070A000869
:1007E0000B000000000943000A4900000000220C31
:1007F000000B0D0E0C11120D1D1E3A34353B343614
:100800000E3A000000004F76770F3B004041420057
:100810000000106D6E4D74004E75000000004143E5
:100820004442434543434644434745434800000050
:100830004649454749460000002304002405002599
:100840000F10000000111314121A1B2D1C000000C1
:1008500000131F2032272833292A142C2D152E2F60
:10086000167800000000178A0018790000000019AF
:100870003B3C1A3D3E1B3F001C4000000000496FFE
:10088000004A70004B71004C727300000026150086
:100890002716002817002918002A19000000002B2D
:1008A00006002C07000000002E21002F22233024F8
:1008B0002531260000000034060035070000000046
:1008C0003630003731003832003931330000005003
:1008D0000400510500000000558A8B568A8C0000E8
:1008E00000527A7B537A7C547A7D00000003060024
:1008F0003C07000000000306003D07000000000365
:1009000006003E07000000000306003F070000004D
:10091000001E43001F49002009000000004143441D
:10092000424345434346444347454348000000464D
:1009300049454749460000003B3436212C2D000034
:1009400000340600350700000000FE1406150C15E3
:10095000121514151415161518151A151C1506154B
:1009600020155C022A0100002A0000017A5C1FB7F2
:10097000F894219A299800E000932A011FBF089556
:1009800000912A010895002319F0299A01E002C07C
:10099000299800E000932A0108953FEF222391F067
:1009A000422FF8012081322728E0532F550F37FBC3
:1009B000352F16F451E335272A95B9F70F5F1F4FEE
:1009C0004A9579F7032F08951FB7F89400E06BD08C
:1009D000009164000B7F0093640000E00CBD1AD00E
:1009E00000E10CBD01E00DBD00E50CBD5FD001E0F4
:1009F000009350011FBF08951FB7F89400E00093C3
:100A000050010CBD0091640004600093640002D0AA
:100A10001FBF0895229A2A9A259A2D9A239A2B9AD3
:100A200024982C9A08958A938FB7F894E5DF8FBFA6
:100A300089910895EBE2F1E008950FEF028300E061
:100A4000008303E001830895BA93AA932197AEE44B
:100A5000B1E000912B01002319F480D023D015C000
:100A600000E00D930C93119700932D0102E01BD031
:100A700028EE33E001E00E94451A0BD00D911C9145
:100A8000D9DFE00FF11F03810EBD2196A991B99125
:100A900008950DB508830EB508832A980CB5006833
:100AA0000CBD089503E000932C0108952A9A0CB51B
:100AB0000F770CBD0895BA93AA93FA93EA934A93D9
:100AC0003A932A931A930A934FB7B4DF0181023005
:100AD000E9F40DB506FF03C0E9DFAFDF1DC00EB5B9
:100AE00023A134A1DF01A20FB31F13960C9303A11E
:100AF00014A10F5F1F4F03A314A39801008110E0FE
:100B00002017310728F0128303E00183CFDF04C0F0
:100B1000E20FF31F03810EBD4FBF09911991299177
:100B200039914991E991F991A991B991189500915B
:100B30005001002391F000912C010A9519F00A95BB
:100B400011F0089581CF01E00E94411A012B29F490
:100B500005D000E000932B01A5DF0895A7DF0FEF7C
:100B600000932D0108951FB7F89400E033D1009150
:100B700064000F77009364003C98449A3D98459A2E
:100B800001E10093B80008EF0093B9000FEF009364
:100B9000BB002AD001E0009394011FBF08951FB746
:100BA000F89400E00093940120D000916400006864
:100BB000009364003C9A44983D9A45981FBF08955D
:100BC00000919401002339F0E2D0002311F00330AA
:100BD00011F401E0089500E008958A938FB7F89426
:100BE000DEDF8FBF8991089504E00093BC00089573
:100BF0000FEF028300E0008303E001830895E1E545
:100C0000F1E00081002311F4EFDFF2CF00E0E5E92D
:100C1000F1E00083018305EAE8CFAD0155D02D91C5
:100C20003C91008110E02017310760F4E20FF31FC0
:100C300003810093BB000DD00F5F1F4F0083118312
:100C400005E804C0128303E0018304E9CEDFDA0182
:100C50000895E5E9F1E00081118108958091510145
:100C600090E001970817190710F405EC089505E8BE
:100C700008950D01BC0128D04D915C91208130E098
:100C80004217530778F41091BB00DF01A40FB51F82
:100C900013961C93A5E9B1E02D913C912F5F3F4F36
:100CA0003C932E93002331F000E0028303E00183A4
:100CB00004E906C0A5E9B1E00D911C918081D0DF67
:100CC00094DFCB01D0010895E1E5F1E0A5E9B1E0C1
:100CD0000895AA939A938A93FA93EA933A922A925E
:100CE0001A920A927A936A935A934A933A932A935E
:100CF0001A930A93AFB78091B900887F48D001302A
:100D000039F402E067D028EE33E000E00E94451A93
:100D10003ED0023011F004E01FC0885079F08850B6
:100D200069F0885081F0805171F08051D1F0885085
:100D300071F0805151F0885089F015C000E00093A7
:100D400095010093960169DF0FC000E008C0009193
:100D500095011091960182DF48DF06C001E089DF2E
:100D600003C04DDF01C02CD0AFBF0991199129916B
:100D700039914991599169917991099019902990E6
:100D80003990E991F99189919991A99118950091DA
:100D90005201089500919401002389F0F8DF0A952B
:100DA00019F00A9531F008950091BC0000FD07C0CC
:100DB00026CF00E00E94411A012B09F401D00895CA
:100DC00004E00093BC000FEF0093530100E0009398
:100DD000510103E000935201089549E650E0BBD170
:100DE00094D141E850E018D1013019F484D08DD06D
:100DF0000BC02098289A55985D9A04E6189916C059
:100E00004D9914C00A95D1F716D03A9A429A0FEF2D
:100E10001CE701501040E9F700C0000042980FE7BE
:100E20001EE301501040E9F700C0000037D000E099
:100E3000009397019EC0192E282E81E690E041E78D
:100E400050E089D141E750E07FD148E150E00E9475
:100E5000ED2C42EA50E00E94112D25EA30E06BE1D2
:100E600070E0EFE0F0E00E94C22D24EB30E0E7E319
:100E70000E94C22D22E830E0899618E000E0A90126
:100E800076D0AC0174D001962F5F3F4F1A95B1F721
:100E900041E850E06CD0822D912D089511E020E0C2
:100EA00007EEE8E6F0E030E045E050E060E00E9468
:100EB000AD2DECEEF1E040E050E018E10E94CF2DC6
:100EC00042EA50E00E94ED2CE4E0F2E030E00083E2
:100ED00011832283E7E0F2E045EA50E01FE008D00A
:100EE000E6E1F2E044EB50E030E017E301D003C06C
:100EF00020E00C94CF2DEEE4F2E042E950E010E166
:100F00008BD0019349D1E1F70895BA93AA939A93AC
:100F10008A9300E0AEE4B2E0202F2370F0E0E22FED
:100F2000E25EFE4F13812C9121272D930395003112
:100F300098F392E080E0AEE4B2E0282F23950EE42F
:100F400012E00E94CD040D9383958031B0F39A9501
:100F500089F742E950E0EEE4F2E010E1019107D0B8
:100F60001BD1E1F789919991A991B99108950C94B8
:100F7000062D0E94701C0E94A21C40E850E04CD03C
:100F8000702F4FE750E048D0602F4EE750E044D03C
:100F9000102F4DE750E040D0512F102F252F4CE758
:100FA00050E03AD0302F022E4BE750E035D0202FC2
:100FB000502D012E152E49E750E00E94E82CA0018B
:100FC0000E94FC11E7E0F2E0058516850E94860983
:100FD0000E94531A0E94251C0E94ED050E945F1476
:100FE0000E9413050E94E2160E94380C45E650E06C
:100FF000B8D0B901080141E650E0B3D0A0010E9489
:101000002B0C0E9453130E940A120E94B7040E94E4
:10101000961D0C94AE1521910C94E52C9A938A930D
:1010200080E090E08C01000F111FF801E359FF4FA1
:1010300005911491202F212B11F0F8010995A89505
:1010400001968C014BE050E00E94502D842F4423E8
:1010500041F70E941E1AE5CFEEE1F1E00081118117
:1010600049E750E00E940A2D02814BE750E07FDF04
:1010700003814CE750E07BDF04814DE750E077DFF0
:1010800005814EE750E073DF06814FE750E06FDFE8
:101090000091280140E850E00C94062D192E282ECE
:1010A000CA0141E650E050D08C019B0145E650E07A
:1010B0004BD0822D912D0895E4E0F2E00081118162
:1010C000228142EA50E00C94112D45EA50E0E7E01D
:1010D000F2E01FE020E00E94B92D0C94CD1544EB06
:1010E00050E0E6E1F2E017E320E00C94B92D22D0C5
:1010F00040E050E060E070E029D00E942B0C1ED050
:1011000004D045E750E020D012C049E650E01CC0B2
:1011100011D091DEC3DE0BC00DD0F7DE0FD04DE64F
:1011200050E019D04DE650E00FD00E94710C8FBFF7
:10113000899108958A938FB7F894089507D041E66E
:1011400050E002D045E650E00C941B2D00E010E08A
:1011500020E030E0089505D00F5F1F4F2F4F3F4F25
:1011600008950C94F42CE6DFD3DFD6DFC0DFDFCFA9
:1011700045E750E0F0DF45E750E00C941B2DF80107
:1011800042E850E018E047DF201711F000E0089532
:1011900003D0C9F701E008954F5F5F4F1A95089596
:1011A000F8014AE850E018E036DF201711F000E0BF
:1011B0000895F2DFC9F701E0089542E850E002C067
:1011C0004AE850E0F80118E001910E94062D4F5FB7
:1011D0005F4F1A95C9F7089549E650E00C94F42C36
:1011E0004DE650E00C94F42C41E750E00C94F42CC4
:1011F00045E750E00C94F42C06E200937C000CECE4
:1012000000937A0008958A938FB7F89400910001B3
:10121000002371F401E00093000128EE33E004E0C4
:101220000E94451A009164000E7F00936400E4DF81
:101230008FBF899108951FB7F89400917A000F77B6
:1012400000937A000091640001600093640000E064
:10125000009300011FBF08958A93FA93EA933A928C
:101260002A921A920A927A936A935A934A933A93D9
:101270002A931A930A938FB7009179000093030180
:1012800001E000930101D7DF8FBF099119912991E6
:1012900039914991599169917991099019902990C1
:1012A0003990E991F991899118953FB7F894409157
:1012B000030106E212E02224149F102D212D049F29
:1012C000110D221D012F122F3FBF0895FFB7F89473
:1012D00030E0212F2695102F179500E0079543E168
:1012E00051E060E070E00E94742D00930201FFBFA6
:1012F00008952FB7F894009103011091020101178E
:1013000010F401E001C000E02FBF089521E0209318
:10131000000120E020930101D9DF28EC30E004E057
:101320000C94451A00910001002359F004E00E943A
:10133000411A012B31F47FDF00910101002309F4F0
:1013400062DF089585D1C801822E432E0EE010E0A1
:101350009924021B10404CE050E00E94502D212F98
:10136000220F220B80549D4EA0E0B0E0801B910B19
:10137000A20BB20B552466247724AA24BB244CE08C
:10138000429F702D602D710D419F502D610D791D73
:10139000409F510D691D791D800C951EA61EB71E1C
:1013A00009E90B9D302D0A9D5CD0099D102D210D62
:1013B000351D089D002D110D251D351D095C1140A1
:1013C0002040304038D032D00DE611E040E01A9F86
:1013D000302D0B9F300D199F202D0A9F18D1189F7B
:1013E000102D099F17D1089F27D1400C20D00CD178
:1013F00018D017D01BD044E643D1401A510A620AD4
:10140000730A40E951E060E070E0FED008D1A2012B
:10141000B3013AD54558554E654270408A019B014B
:1014200074C136952795179507950895400E511E5E
:10143000621E731E089545E070D1F1C0BC01F80131
:1014400040815181405D57402CE0259F302D249FE5
:1014500008D0828190E00197280F391F8901CB01C4
:101460000895202D310D0895F80106D06BCF8A9391
:10147000F801848101D005C033812281008111816E
:10148000089537D14ED13AD1080F121D221D321DB9
:1014900089910895BD01D8010BD0439512964C93C4
:1014A000129706D00053184F0D931C93DB0108953B
:1014B0004CE050E089010C94382DFA92EA92DA92CD
:1014C000CA92C6D02697088319834A835B836C83AC
:1014D0007D838BD0085A17492A4D3F4F0A831B83BF
:1014E0002C833D838A819B81AC81B32F845D92489C
:1014F000AF4FBF4F7FD041EB5AE362E08FD068011E
:10150000790101EB1AE322E040E02D9D302D1E9D74
:10151000300D0F9D300D2C9DA4DF1D9D78D00E9DAC
:1015200076D01C9D7ED00D9D75D00C9D89D062D04B
:1015300045EB55E060E072D04801590105EB15E03C
:1015400040E0129F302D0B9D300D199D8ADF0A9DC2
:101550005ED0189D66D0099D5DD0089D71D005E0D4
:101560000B9F302D0A9F7DDF099F5BD0089F5DD0C8
:1015700049E962DF2801390109E940E0D2D0341F8E
:10158000049D53D058DF801B8395E881F9818383C4
:101590004AE0C3D08201930142D0642D6D5F502F89
:1015A0004CE0549F6019E881F981628344E64D9DC7
:1015B000502D4C9D402D510D480D591D400F511F70
:1015C000405C5241E881F9814083518347E0A5D0D6
:1015D0000CD025D0A881B98117960C92269695D06B
:1015E000C990D990E990F99008950A811B812C81C6
:1015F0003D81089509D003D002D00D5F18C0000FBF
:10160000111F221F331F08958C019D010895200D85
:10161000311D0895100D211D341F089570E00C94A4
:10162000742D102D210D341F089505D00E5F1F4F0E
:101630002F4F3F4F0895002D110D241F341F089583
:10164000FADFEFDEEEDE801B910BA20BB30B0895E9
:10165000BA92AA929A928A927A926A92F5C0F4D039
:101660002801CA01DB010BD0F201048208D0A801D5
:10167000B901820122DFEDD349905990089548E1E4
:101680004CD0C2DFCCCFE4DF5FB6F894380149011B
:101690005A01AEE1B1E040902201809120013091E9
:1016A0002101282F0D911C91119723D03AD026D0DB
:1016B00034D0040D151F251F351FF30187D248E1D3
:1016C000008111812281ABDFF40180D22D913C9108
:1016D000205D37400CE0039F102D029F002D110D5F
:1016E00090E00197080F191FF501008311835FBE79
:1016F0000CC028DE402F08E122240895321D049FEB
:10170000002D110D221D321D0895B5DF69907990CD
:1017100089909990A990B990089550E060E070E0A8
:101720000895039F302D029F202D310D019F102D14
:10173000210D08953DD064817581600F711F648310
:10174000758306811781020F131F06831783008597
:101750001185040F151F0087118701312EE01E40EF
:1017600018F000E1008721870FBE089521D066851B
:101770007785600F711F6687778700891189020F4F
:10178000131F008B118B60E07AD330D0028B138B48
:10179000248B358B0138114541E02140304030F039
:1017A00000E811E5028B138B448B658B0FBE089507
:1017B0000FB6F894E8E9F1E008957FB7F89460E097
:1017C00073D1008C118C228C338C000E111E261EBE
:1017D000361E008E118E228E338EA90162D306D062
:1017E000048F158F268F378F7FBF0895040F151F25
:1017F000261F361F08957A926A9226D07FB6F894F3
:101800002801C901DA0196DFAD019C018201AEDF3A
:101810009C018201D2DF662447D121D1040D151D20
:10182000261D361D20D004A115A126A137A1080F21
:10183000191F261D361D04A315A326A337A37FBE9B
:101840001ADF6990799008955A924A92BA93AA93AE
:101850009A938A930895ACDF06D044A355A366A358
:1018600077A30FBE089500A311A322A333A3089565
:10187000EEDFAFB7F8941ED007EC11E00E940B2EFC
:1018800088E991E017D08C010E940B2E4EEA51E0BE
:101890000A969C01F8DE00E00093C20101E000938B
:1018A000C30107E00093C401CBD1AFBF89919991E7
:1018B000A991089540E250E020E030E008951FB77C
:1018C000F8940091C201002311F001E001C000E092
:1018D0001FBF08951FB7F89407E00093C2011FBF10
:1018E00008958A938FB765DF00E00483058306833C
:1018F000078300870187AAD1008F018F028F038F92
:10190000048F058F068F078F00A301A302A303A3F3
:1019100004A305A306A307A3DDDF8FBF8991089564
:10192000BA93AA938A938FB7F8942A97A8E9B1E05B
:10193000FD0144A155A166A177A191D00E944E0856
:10194000AE019E012E5F3F4F8E010A5F1F4F9BDE4F
:1019500081D04CD213974FD241F486D002E0038756
:1019600007E004874587468765C00D911D912D913D
:10197000372F13974E815F81688579853CD2C8F5F2
:1019800073D041E067D00D931D932D933C93139733
:10199000FD015483558356835783508751870CD15B
:1019A00054D0001511052205330551F049D0568752
:1019B0005787508B518B528B538B548B558B43E0F5
:1019C00006891789288139810217130759F0268B58
:1019D000378B508F518F528F538F548F558F568F17
:1019E000578F446002E003A744A755A756A742A714
:1019F00021C001E04D935D936D937C931397FD019E
:101A0000F0D123D0401551056205730511F018D0AF
:101A100003E026893789488159812417350719F051
:101A2000468B578B046011E013A704A710E015A79D
:101A300016A702A72A968FBF8991A991B9910895F7
:101A4000028613862486358608950A801B802C80A2
:101A50003D8008950E811F8128853985089500A154
:101A600011A122A133A1089507EC11E0FD0140E28C
:101A700050E00C94972D0E94F51601E00093C501EB
:101A8000089592D009F00ED008950ED006A50395C2
:101A900006A7043000E010F405A7089592D009F0DD
:101AA00001D008950C94C616E8E9F1E0089527D214
:101AB00049F50091C401002329F476D009F473C0DC
:101AC000F1DF71C09DD109F46EC020E060E070D0FC
:101AD00029F40EE912E0FC01CADF06C0E7ECF1E0F0
:101AE0000EE912E0C4DF21E0FC0104A500FD06C000
:101AF00001FF02C061E002C002FD62E0162F022F6A
:101B0000BADF51C07ED109F44EC00091D00201303D
:101B100009F048C0FC0104A500FF12C003A5013074
:101B200069F4AEE9B2E088D1139750D0FD01408549
:101B300051852681378104811581FCDD01E023C0B8
:101B400001FF10C035D061F443D136D0FC0137D14C
:101B50003FD142895389208931890685178506DE60
:101B600002E011C002FF13C023D061F431D1068915
:101B70001789FC01068B178B2BD1248D358D008D99
:101B8000118D1BDE04E0FC0114A5102714A704A589
:101B9000002300E021F415D009F092CF04C005A77E
:101BA00006A701C072DF55C100E00093C3010AC05F
:101BB0000091C30101300895028513852485358580
:101BC000089503A70E94D41600230895008311836B
:101BD0002283338308950091C301002311F401E0AF
:101BE000089500E008955B2F6A2F422F5DDF23A543
:101BF0002223E1F400A711A7E8D000E0FD0104874B
:101C0000058724D0068B078B01E0008F00811181AE
:101C100022813381048015802680378000161106CA
:101C20002206330628F402E0008F06C000E005C05B
:101C3000FBD04093C40104D001E0A62FB52F089536
:101C400000E00093C5010093C60108950687078749
:101C5000008B018B028B038B048B058B08954FD176
:101C600009F064C0B1D0FD01DAD0448155816681AC
:101C70007781401751076207730718F402DF02E00B
:101C800093C04091C4014A9529F04A95C9F0425049
:101C900059F18DC0FC014081518162817381ABD0CB
:101CA00041F4048115811CD1068117810ED1D6D053
:101CB00012C0A6D009F47BC0C4D088DF10E033C0C6
:101CC000FC018FD098D049F40685178509D1008989
:101CD0001189FBD0CBD09ED014C092D009F467C03C
:101CE000B0D06DD011E01FC0FC01468957890417A0
:101CF00015072040304061F45DD0FBD0C5D0F3D053
:101D0000C8D08DD055D090D000E00093C6014FC010
:101D100077D009F44CC058D018960D911D9158D029
:101D2000068B178B12E000E0A6DE41C06AD0F9F105
:101D30000091D002013091F50091C4010A9529F07B
:101D40000A9561F00250A1F01BC045D004811581B5
:101D5000B0D006811781AAD081D008C03CD00685BA
:101D60001785A7D000891189A1D080D053D008C091
:101D700032D020D01C963AD087D0A2D01C9789D0E0
:101D800023D0189659D014D03C932E931E930E93C3
:101D900003E003A700E005A706A709C076DE0091CF
:101DA000C301002321F403E00FD058960C9351C0D7
:101DB0000F5F3DCC008D118D228D338D08950287EC
:101DC0001387248735870895FC01A0A5B1A5089540
:101DD000EEE9F2E00895FC01A0A5B1A5EEE9F2E07C
:101DE0000895428553856485758508954D915D916B
:101DF0006D917C91089504171507260737070895FC
:101E000004D00E94DB1600230895DCDE11F40E944A
:101E1000BF160895448B558B668B778B089500858C
:101E2000118522853385089500871187228733879E
:101E300003E00093C30108950D911D912D913C91F4
:101E40000895FC01A0A5B1A51896F6DFEEE9F2E031
:101E5000089589919991A991B99108950085118565
:101E600008D0400F511F621F721F089508D001D083
:101E70000BC0FD01448955896689778908950289D7
:101E80001389248935890895400F511F621F731FDC
:101E9000089507D01FD0F8DF408B518B628B738B76
:101EA0000895048D158D268D378D089507D0509790
:101EB000089520E01C9602D01496089597DFD1DF94
:101EC0007C936E935E934E93089504D0CADFE4DF53
:101ED000FC010895FD014089518962897389089543
:101EE00020E007D0BEDF4487558766877787FC01EF
:101EF0000895FD0144855585668577850895A6DC9E
:101F000088E991E00091C50100230895CDDD03A586
:101F1000002339F00A9559F00A9549F00A9541F0E5
:101F2000089502A5002329F000E002A7F9CCBFCD57
:101F300096DE08959C01C801037031F444E650E038
:101F4000082F4DD0412931F440E951E08C0147D0B0
:101F5000412911F401E001C000E0C90108957A921D
:101F60006A924A921D01BC013801A32F822F90E092
:101F70000EE010E0021BA4D1402E601A790AB0E0F6
:101F8000A60DB71D83011695079516950795A00F09
:101F9000B11F119744E650E021D0A01BB10B40E9DE
:101FA00051E01CD0A00FB11F0CE0409E800D911D90
:101FB00002970FE1099F102D089F002D110D4CE095
:101FC00050E00DD00A0F1B1F47E050E008D0042F4F
:101FD000CB01D101499069907990089583010C94C7
:101FE000382D242CBD01392FD801009128010A95E4
:101FF00009F10A9509F5EA2FF12F0281102F1450EB
:102000001630C0F0033059F424D0092F041590F095
:10201000FD019383992381F014D070F00BC00A3036
:1020200059F417D0491630F0FD019383992321F01C
:1020300008D010F401E001C000E0932FDB01422C36
:102040000895222311F004E001C003E02481201749
:10205000089543809FE1078110E0015E1F4F04193E
:1020600010400F5F1F4F47E02DD1941B08951FB7FD
:10207000F894EEE5F2E00081039500831FBF089518
:102080002FB7F89400915E0210E010935E022FBF0C
:1020900008951FB7F89400E000935E021FBF0895F3
:1020A00009D1EEDF802F002309F49CC0442490E086
:1020B000AEE1B1E00CE310912401011B801728F47C
:1020C000FD01012F080F06836BC010E0109324015F
:1020D000801B91E000912901002319F0FD010A9570
:1020E0000387009123010B3320F4FD010395058341
:1020F00054C01093230144244394009122010731DA
:1021000020F4FD01039504832CC01093220100915B
:1021100025010F5F1F4F47E0D5D040932501009167
:10212000200120912101309126011DE0319FBDD079
:1021300010E0E00FF11F1081211728F4FD01022F9C
:10214000039503830EC0909321010C3050F49093BB
:10215000200131D10F5F1F4F1C930E93EBDE0093D4
:10216000260120912701C0D0109127010117A9F065
:1021700010912201002341F0173178F49093270148
:10218000FD01012F039508C0112339F000E00093F1
:102190002701FD01012F0A950483882309F08ACFC6
:1021A00000912901002391F40FE0009329010E947E
:1021B0007909002359F00E942716002339F04AEFCD
:1021C00050E026E930E003E00E943612992311F036
:1021D0000E94CD15442031F00E946A0C0E942C0808
:1021E0000E94030989919991A991B9914990089503
:1021F0008A927A926A925A925DD0412E942F752ECD
:10220000662E572E8985002389F12D3607E0300789
:1022100028F040E157E28901E2DE02C04CE657E0D7
:10222000AEE1B1E04D935C931197CED0802E009338
:102230002601042D10E0015043D0442E43944092D7
:102240002001092F10E0015010402DE0829E2DD07A
:10225000242D30E0E40DF31F408134D0342F33952A
:1022600030932101A8D07BDE00932501772079F0FF
:1022700048E1062D18D0009222014CE3052D13D021
:10228000009223014CE3082F0ED00092240127D0A6
:1022900000DF21D00E942C08A5DF59906990799029
:1022A0008990219608950C942A2DE4E0F1E0E00D48
:1022B000F11D08954A92BA93AA939A938A93089526
:1022C00010404CE050E00C94502D0093280107D0B2
:1022D00002D00C942C080E94CD150C946A0C21E0BD
:1022E00003D00093270108950EE111E07ACEBA934E
:1022F000AA938A93D801822F5ED01197005D174070
:102300000436104050F0222319F000ED17E002C00F
:1023100003E318E00D931C93119756D0FD0100873D
:1023200012811A951C3030F0882311F011E001C0A1
:102330001CE012836381662371F01DE0019F24E09D
:1023400031E0200D311D428150E0240F351FF9018D
:102350001081161798F4882311F001E00DC01DE0DC
:10236000019F04E011E0000D111DFD01228130E00C
:10237000020F131FF8010081FD010383FD01048199
:10238000083130F0882311F000E001C007E1048338
:1023900005810C3310F012D0058306810C3310F048
:1023A0000DD0068321E08D011CDEFD01018789919E
:1023B000A991B99108950D911C910895882311F068
:1023C00000E008950BE30895F6DF1197B3CDBA93BB
:1023D000AA93D80120E08BDF16960C910A937E9188
:1023E0006E9151E04E911E9112972D913C9101E01A
:1023F000FFDEA991B9910895112E7093280101D0A3
:10240000F7CE6A93BA0151E0432F122F202F312DBE
:1024100001E008951FB7F8943A9A429800E00093BB
:102420005F02009362021FBF08953A9A429A01E048
:10243000009362021091600214D00C94451A3A9AEB
:102440004298EFE5F2E000E003830081023030F0D3
:102450000A950083128105D00C94451A00E0008390
:10246000089502E3109F900105E008959A938A93DE
:10247000602F8901CA0160935F0242E350E00E942D
:10248000382D0093600242E350E08C010E94382D09
:1024900000936102CADF89919991089500915F02CA
:1024A000002311F401E0089500E0089500915F0217
:1024B000002359F005E00E94411A012B31F40091EC
:1024C0006202002309F0BBCFB0DF0895BA93AA934C
:1024D0009A938A93FA93EA933A922A921A920A92D8
:1024E0007A936A935A934A933A932A931A930A9344
:1024F000BFB7A0E01899A1E001E0A0274F9B02C060
:1025000040E001C042E04E9B02C020E001C024E058
:102510004D9B02C000E001C008E0A40FA20FA00F75
:1025200003E00A95F1F7000060E0189961E001E02E
:1025300060274F9B02C040E001C042E04E9B02C0BA
:1025400020E001C024E04D9B02C000E001C008E093
:10255000640F620F600FA623909175029A27A093D3
:10256000750281E0092F01701A2F1170012341F0CB
:1025700010E0082F39D0843019F401E0009376027E
:102580009695A6958395853068F320ED37E029D0A0
:10259000BFBF099119912991399149915991699137
:1025A00079910990199029903990E991F99189913F
:1025B0009991A991B99118958A938FB7F8945ED0A3
:1025C000025019F0025021F006C011E002E002C0F2
:1025D00011E003E009D02AEF30E003D08FBF8991EA
:1025E000089508E00C94451ABC013FB7F8941123F4
:1025F00011F020E801C020E08091730290E00F7795
:10260000020FFC01ED59FD4F008301968C0132D081
:10261000409373020091740210917302101711F429
:1026200010E022D03FBFCB0108952A2E392F682F0A
:102630002FB7F894902FA091730200917402A01705
:1026400069F010E0F801ED59FD4F80810DD099231C
:1026500011F087FB96F38F77082F01C000E02FBFA2
:10266000862F932FA22D08950F5F1F4F03D0409305
:102670007402089540E150E00C94502D00917502D1
:1026800008952FB7F8940091760210E01093760227
:102690002FBF08951FB7F89400E0009373020093D2
:1026A00074021FBF08958A938FB7F8942098289AD0
:1026B00057985F9A56985E9A55985D9A00E00093F5
:1026C000750200937602E6DF01E000936B0000E004
:1026D00000936C0000EE00936D0005E0009368002D
:1026E0008FBF8991089508E00E94411A012B39F4A7
:1026F00000E000937602C2DF002309F05DDF089559
:1027000011D00E94B30501E0A2D18FBF8991089535
:1027100009D03B9A43980E94CF0500E0D6D18FBFE5
:10272000899108958A938FB7F8940895F9D1002379
:1027300011F001E0089500E00895F2D1023011F4A3
:1027400001E0089500E00895392F482F89E792E0CD
:1027500010E1FC0102E020E2248370960A95E1F783
:1027600001961A95B1F7842F932F0895A1D0702F59
:10277000DA01962F412F0A2F052B062B09F441C0B1
:10278000EA2FF52F67FF008167FD0491013120F4E6
:10279000802F002311F435C080E1203110F4E22FA6
:1027A00001C0EFE00DE712E020E1729F2801400C2C
:1027B000511C442329F04A9571F04A9581F017C0C5
:1027C00000E110E0081B104042E050E00E94502D54
:1027D000400E511E0CC000E10E1B14D006C00E2F7F
:1027E000039510D03196E81BF0404E0E5F1E082F67
:1027F00010E0AF5FBF4F9F4FFD01392FD2010E9404
:10280000F82D05C0081708F4802FF0E00895C4D013
:102810004990599008959A928A927A926A9248D0F1
:10282000202EE12F322E932E0DE712E020E1229E82
:10283000000D111DE03110F42E2F01C02FE0322FBA
:102840003395331510F0532C01C0532ECA01DB0110
:1028500044245520F9F0020F141D380121D0842E94
:102860001FD0C801D901442031F0882021F4012B68
:10287000022B032B29F000E3800EF301808204C0B9
:10288000992041F0F301908243940FEF600E701E87
:10289000451420F3BCDF6990799089909990089550
:1028A0004AE050E060E070E08C019D010C94742DD2
:1028B0005A924A92BA93AA939A938A93089532DFCE
:1028C00027DF42DF8FBF899108956BD011F400E0BC
:1028D0000BC0E1E5F1E003E000830CE7038300E0D7
:1028E0000483858301E0018389910895BA93AA93B3
:1028F0000E94E005002311F400E01CC00CE20093EC
:1029000051010CE70093540100E80093550100E4E5
:102910000093560100935701A1E5B1E0E3E8F0E030
:1029200008E2159117961C9316970A95D1F701E0C6
:1029300000935201A991B9910895BA93AA939A93D9
:1029400030D011F400E028C0E1E5F1E004E10083BB
:102950000CE7038300E80483082F882319F00A9505
:1029600019F004C000E801C000EC058300E4068310
:102970008F0120E1829F89E792E0800D911DDC01AB
:1029800014963C91D80117963C9301960F5F1F4F08
:102990002A95A9F701E0018389919991A991B991AB
:1029A00008958A93802F0E94E00500230895E9E7A7
:1029B000F2E000810C3061F00281002319F00A95E9
:1029C00021F006C007D0005802C004D000547DCFCB
:1029D00001E00895038148E20E942A2D042F089502
:1029E00001E0109178021C30C8F4F2E01F9FF00162
:1029F000E65BF64F05901490F00109943B9A439AD8
:102A000024E630E002E00E94451A0AC002E00E947B
:102A1000411A012B31F404C008E332D0002309F03D
:102A20004DD0089563DFFACF09E3F7CF00E1F5CF8A
:102A300000E7F3CF06E5F1CF0DE68DD091F3E0CFBF
:102A40000CE00093790206E000937A0203E0009321
:102A5000770200E000937802089527D039F01A95A4
:102A600041F01A9541F01A9541F001C009D022D0E9
:102A7000089502E0FBCF2CD0F9CF6BD0C9F324C06E
:102A800024CF13D039F01A9531F01A9539F01A95F0
:102A900041F002C000E051DF0DD0089519D0F0DF01
:102AA000FBCF85DF0023C9F30FC001E0109178024E
:102AB00011230895002309F001D00895E7E7F2E01B
:102AC000018103950183089502E000937702089540
:102AD000009179020895ECDE902F812FA22FB42F60
:102AE000452E1ED00230D1F4332379F00E947909AB
:102AF000002359F004E0EDE7F2E05524E40DF51D64
:102B000010E1B19FE00DF11D0083E9E7F2E0908351
:102B10008283A38304E09BDF01E079CE00E0FDCF58
:102B2000009177020895FCDF0A9549F0025041F0C8
:102B30000A9539F00A9531F00A9541F0089550CF81
:102B40008CCF9FCFC5DF07D019F0BECF02D0E9F7F9
:102B5000089500917A02B9DE002308950FB7F89422
:102B60000FBF0895662319F024173507A1F0241725
:102B7000350740F40217130718F00417150758F02B
:102B800000E0089542175307D8F70217130718F407
:102B900004171507A8F701E008955A924A92BA93CC
:102BA000AA939A938A93A7E0B2E0FD01038107FDFF
:102BB0000AC020910A02E0912501F0E0E555FF4F9F
:102BC0000491202319F190910B029923C9F0EEE1B1
:102BD000F1E0248130E00CE3029F25812001420EC8
:102BE000531E61E0FD0147815085258136812DD03E
:102BF000802F0023092F31F00A9511F00A9551F426
:102C000001E005C00A9511F0025021F400E00093A4
:102C10009D0214C0923011F461E001C060E0FD013A
:102C2000438554852185328510D0933021F411E0FD
:102C30000127802301C0802B80939D028991999167
:102C4000A991B99149905990089582018BCF009133
:102C50009D02089500910802002369F052D059F0B6
:102C60000E94901D002339F00E94C004002351F4FB
:102C700001E00C94C3040E94C004002319F000E09A
:102C80000E94C30408953DD0E1F00E94901D0023EE
:102C9000C1F00E94931D002319F018D0B1F40BC0AD
:102CA0000091070200FF03C011D049F4089512D02B
:102CB00021F00CD051F40C946D1A08D031F00C9422
:102CC0005C1A08D051F702D0D1F708950E94B01ACB
:102CD0000023089500919D02002308958A930E9485
:102CE0004113802F0ED011F40E94271D882329F054
:102CF00008D019F401E00E94501DC5DFABDF8991B7
:102D000008950E948D1D0023089500914D02002317
:102D100059F444EF51E02AEF30E002E00E9436120D
:102D200001E000934D0239DFD9DFD4DF39F5E9DF67
:102D300029F5CCDF19F50E94D416002321F00E945A
:102D4000DB160023D9F00E944E120023B9F00E9436
:102D50006D1C002331F00E94341A002311F00E94F0
:102D6000541C0E946D1C002349F405B7016005BF87
:102D7000889500000000000000000000089510D0B9
:102D80000E94E40427D08FBF8991089509D0229A28
:102D90002A9A0E94FC0400E01AD08FBF89910895FE
:102DA0008A938FB7F894089506D3002311F001E0B9
:102DB000089500E00895FFD2013011F401E0089574
:102DC00000E00895EDDF0CD38FBF89910895009343
:102DD000D102089501E00093D102089528EB3BE071
:102DE000FCD203E00093D102089544D123A92130FD
:102DF00049F400AB11AB00E002AB05AB02E003AB62
:102E000001E0089500E00895EBE2F1E0212F239521
:102E1000208321E0218320E022830383412F50E09F
:102E20002FEF30E034968F010C940B2EB8D201E0D6
:102E3000B2D202E000932F0108951CD101A9002312
:102E400029F00A9559F00A9599F01CC086D040E007
:102E500053E060E070E0ABD01AD014C00285138557
:102E6000248535858ED240EE93D211D0505D0AC0B4
:102E70004689469550E04F71440F440F440F440F6C
:102E8000551F525C50932F0140933001089500D09C
:102E9000440F551F440F551F08953B2F4A2FEEEB4B
:102EA000F2E0AEE4B2E000E11D9120812127219300
:102EB0000A95D1F7A42FB32F08955AD28A936FD0D1
:102EC000842FFD01442449D0402F03E0029F202D90
:102ED000019F102D210D049F110D241DEEE904A664
:102EE00015A726A7008511854CE350E00E94382DD8
:102EF0000C3320E0104010F06CE301C0602F8823F9
:102F000029F08A95C9F08A95E9F021C0EEE911A16E
:102F100033A0107E448055804FE15422112E152895
:102F200040A211A214220CEF30222AD0332A30D032
:102F300011A222A333A20BC01BD004A215A226A368
:102F400037A205C015D000A611A622A733A68991E5
:102F5000A991B99149905990089505D000811181A6
:102F60002281338124C043E050E060E070E00895A6
:102F7000EEE9048015800FE1102202D0332E08C044
:102F80000681178130E04DE00E94642D112A0895DA
:102F900003E03022362F330F330F332A0895AEE982
:102FA000B2E0E1DF0D911D912D913C9113970C94AE
:102FB000742D8A935FD082858170428553856485A4
:102FC0004E7F70E044A755A766A70289138924891C
:102FD00035894CE350E060E0EADF312F003A3540BC
:102FE00008F000EA882319F08A9571F019C0EEE91B
:102FF0002685378520A331A32089318922A333A3D5
:1030000010E004A315A30CC0EEE92685378526A39E
:1030100037A32089318920A731A710E002A713A781
:103020008991089527D020E0468957894E7F44A78B
:1030300055A726A70689017019F00A9571F0089521
:10304000028D00A3008D118D01A312A3068D03A391
:10305000048D158D04A315A30895028D06A3008D7C
:10306000118D07A310A7068D01A7048D158D02A74A
:1030700013A70895EEE9F2E00895BA93AA9312E136
:1030800002E084D1ADECB2E09DD029F00A9529F0A0
:103090000A9529F005C011DF03C08BDF01C0C2DF34
:1030A00062D10C931F97F9DE40E150E09D0101E3EE
:1030B00011E00E94EB2DA991B9910895BA93AA93BA
:1030C0008A9380E06CDF442329F04A9549F04A95C1
:1030D00069F021C0FD0100A111A022A133A00BC005
:1030E000FD0104A115A026A137A005C0FD0100A582
:1030F00011A422A533A4112D1F71048315834DE063
:10310000112D332D0E946C2D1F7106831783032C04
:1031100006940694802D0CE3089FFD01008611861D
:103120008991A991B991089540E050E0A3DF02850B
:10313000017019F00A9561F015C000A111A1068770
:10314000178702A113A1008B118B44A155A10AC0BE
:1031500006A117A10687178700A511A5008B118B63
:1031600042A553A50CE330E0059F102D212D049FAF
:10317000110D231F331F028A138B248B358B089567
:1031800079DF0689017019F00A9551F0089560A160
:1031900070E001A112A111D063A104A115A108C082
:1031A00066A170E007A110A508D061A502A513A52E
:1031B000048F158F668F778F0895008F118F628F20
:1031C000738F08950091CF02002308957A926A9236
:1031D000CFD0AEE9B2E0EFD0023061F410912C0113
:1031E000112311F0135031F404E00093D202D2D035
:1031F000F5DD03C0033009F0ADC000912C010330B0
:1032000009F0A8C000912D01002309F09EC0009193
:10321000D302013039F0023039F4EBE2F1E00481FD
:1032200000FF02C0B7D096C000E00093D302009127
:10323000D202002381F00A9591F00A9561F00A9577
:1032400081F00A95B1F00A95E1F00A9591F00A959E
:1032500009F472C07FC010E006E09DD00DC0E6DD2D
:1032600002C00BDF06E00093D20201E00093D3021C
:1032700071C012E103E08AD0FD0104A9039504ABFB
:1032800069C06CD00EEB12E00E94EB2D06DE6BD015
:10329000002EFD0104A515A526A537A5432F401531
:1032A00061F541A9442329F04A9571F04A95D9F076
:1032B0002CC030E043E06CD02801390172DE4016AA
:1032C0005106620673060DC058D042855385648549
:1032D00075857695679557954795041715072607C1
:1032E000370799F00AC049D04689578956954795BE
:1032F000041715072040304041F040E150E020E045
:1033000030E090968D010E940B2E0091CE0200239A
:1033100079F458DF41F00A9521F00A9529F430DF5D
:1033200003C002DF01C0CADE01E00093D00211C079
:1033300000E00093D2020EC011D090968D010E9441
:10334000D42D012B11F401E001C002E00093D00262
:1033500001E03DDDFDDD69907990089540E150E0A8
:1033600021E331E008952FE00EEB12E00C94CD0440
:103370005A924A92BA93AA93089503D02F7730E0D5
:1033800008953695279517950795089504D055CD3E
:10339000EBDD0DCE01D038CD02D005E0089502E07E
:1033A0000093D30211E0089506D0043011F401E037
:1033B000089500E008950091D1020895FCDF0023F4
:1033C00021F0013011F000E008950AD004E0FFDCA4
:1033D00020E335E702D001E0089503E00C94451A9C
:1033E000D5CCE9DF025059F00A9519F00A9541F061
:1033F00008950AD021F402E00093D002EBCCE6CE8F
:1034000003D009F4EDDF089503E00E94411A012B77
:1034100008952FB70DD00B5F1F4F008311832FBF6F
:1034200008953FB705D020E0208321833FBF089552
:10343000F894E4EDF2E0008111810895F2DF202F8D
:10344000212B89F0E6EDF2E029E04081518104175B
:10345000150718F4401B510B02C040E050E04193A7
:1034600051932A9591F70895E6EDF2E009E0219154
:103470003191232B11F000E008950A95C1F701E086
:1034800008950BD000811181089507D020833183E6
:10349000232B11F00E945D1C089512E0019FF001A2
:1034A000EA52FD4F0895E6EDF2E029E000E00193D5
:1034B00001932A95E1F70895C0D10DB30C7F0DBBA0
:1034C000389A4098529A5A98399A4198539A5B98E8
:1034D00000E00093F6021FBF08958A938FB7F89417
:1034E0000E945D1C389A409A52985A98009169003F
:1034F0000C7F31D002600093690000910402033018
:1035000058F0399A419A53985B9800916900037F6B
:1035100022D0086000936900E8EEF2E000E010E0DD
:1035200002830383078704830583008B03E00287FC
:103530000387138B16831783118B10871187128BC8
:1035400014871587148B08EC0083118301E006872C
:103550008FBF8991089500936900009169000895D3
:103560006CD10091F6021FBF08951091FD0201E099
:1035700010271093FD0200910402002391F00A9598
:1035800029F00A9541F0025031F008950091FD02B2
:10359000002339F408950091FD02109105020127DE
:1035A00031F040E050E020E030E001E005C040E0D4
:1035B00050E021E030E000E010E00C94FB0B1091B3
:1035C0000502012740E050E021F021E030E000E07A
:1035D00003C020E030E001E010E00C94FB0B4A92C5
:1035E000BA93AA939A938A934FB6F894A8EEB2E04E
:1035F0000091F602002309F4F3C00D911C9111977C
:10360000012B31F00D91015010401C930E93E8C036
:1036100000910402033008F46BC0FD0104811581A0
:103620000F5F1F4F0483158300E0E09B08C001E09B
:10363000E09A268137812F5F3F4F26833783E19BB6
:1036400032C00260E19A208531852F5F3F4F20878D
:103650003187033041F5E7D00091FB020023C1F030
:103660000091F202033021F01091F3021330A9F41B
:1036700010910402143061F41091F302011711F457
:1036800074DF06C0013069F0123059F001E097DFB5
:10369000C5D0038B03E0028722C00117C9F30130B4
:1036A000A9F700E0F4CF248535852F5F3F4F2487AD
:1036B000358713890023A9F4112309F057C002812B
:1036C00013810F5F1F4F028313839801009106023D
:1036D0002017304008F44AC001E0038B03E0038761
:1036E00045C020E022832383E10FF21F02873EC002
:1036F0008091F80290E001968C0143E050E00E9436
:10370000502D4093F8020091F802002309F068C0A0
:10371000FD01048115816BD00483158322813381DF
:10372000E09B19C0E09A0681178161D00683178358
:103730007AD060D018F001E007870BC00091F70243
:10374000002339F02730304020F40FDF00E00093F1
:10375000F70264D00BC00485158549D0048715870E
:1037600049D020F4890143D002831383FD01848171
:103770009581883C00E09007A0F02681378141D0F8
:103780000093F90200E0EA2F068307832085318544
:1037900038D00093FA0200E0EA2F00870187048303
:1037A000058304851585083B2BE0120718F021E0FE
:1037B000248B04C02091FC02222391F02BD00630F0
:1037C00078F0402F50E020E030E000E010E00E9470
:1037D000FB0BFD01048515851DD0EA2F0486158697
:1037E0004FBE89919991A991B991499008950D5F22
:1037F0001F4F08958091060290E00696281739071A
:10380000089504E6039F102D029F002D110DAC01B9
:103810000C94382D48EC50E00C94382D00E0FD015C
:1038200002830383089500E004870587048B0895CD
:1038300004D00091F9021FBF08951FB7F8940895AE
:10384000FCDF0091FA021FBF08958A938FB7F894A6
:1038500000E00093FD0230DE8FBF899108958A93C6
:10386000FA93EA933A922A921A920A927A936A9374
:103870005A934A933A932A931A930A938FB70E94C2
:10388000091A0E94EF1A8FBF099119912991399154
:10389000499159916991799109901990299039909C
:1038A000E991F991899118951FB7F89400E0009378
:1038B000FE0200936E001FBF08951FB7F894009199
:1038C000FE02002341F400E006BD02E000936E001A
:1038D00001E00093FE021FBF08950091FE020895CB
:1038E0008A938FB7F894E0DF02E004BD05BD0FE4D2
:1038F00007BD00E008BD06BD8FBF899108958A937A
:10390000FA93EA933A922A921A920A927A936A93D3
:103910005A934A933A932A931A930A938FB70E9421
:1039200037108FBF09911991299139914991599176
:10393000699179910990199029903990E991F991BB
:10394000899118951FB7F89400E00093700000E289
:103950000093B60000E00093B00005E00093B100D2
:103960000FEF0093B3000093B40000E00093B200A7
:103970000091B6000F71E1F701E0009370001FBFE6
:10398000089501E000934E0310910902163010F4DF
:1039900005E003C0012F1D3310F4202F01C02CE3DC
:1039A000022F28EE33E0309F302D209F202D310D47
:1039B00006E00C94451A3B2F2A2E25E0029F2ED1BB
:1039C0001C9303E0109F01ED16E0000D111DF8019E
:1039D000459155916491FD013196408351836283F5
:1039E000FD016483A22DB32F089510E010935303BB
:1039F000002359F010914A03193038F413951093AD
:103A00004A03102F00914A0305D0089500E0009367
:103A10004A0311E0D0DF01E0009352030895F2D38E
:103A200009F052D54EC50091070201FD0EC000916C
:103A30001702002321F400913802002331F00E9484
:103A40002716017011E00127089501E00895EBDFCA
:103A5000002300914D0321F0002339F04CD005C024
:103A6000D3D311F0D4DF01C01BD000E000934E038C
:103A700000934F033DD0009351030895E1E3F3E039
:103A800000E002A3018D002341F00A95018F01E0BF
:103A900001A329F4C8DF002311F40E941D26089514
:103AA0008A93802F0E949613002311F40E948013A2
:103AB000ADDF0E944A1300E000934B0300934C03D8
:103AC00000935403882329F001E000934F0399D316
:103AD00004C000934F0300934E0300E00093510392
:103AE00007D00E942D2601E000934D03899108958F
:103AF00000935003089500E000934D030E94961335
:103B0000002311F00E94881320E030E00E942F264D
:103B100020E030E006E00C94451A00914D03089532
:103B200000914F0308950091500308958A938FB731
:103B3000F894E1DF8FBF899108950FD501E002D09D
:103B40000C94451AC7D45AD5CFD5D2D2E1E3F3E0CD
:103B500001E003A300E002A301A320ED37E007E0AA
:103B60000895FBD402E0EEDF0C94451AFCD6E5CFB5
:103B7000D3D301C0A5D48ED4B1F00A9511F10A9522
:103B800029F00A9541F10A9589F10AC046D01396A9
:103B900002D114970117B0F41496012F0A950C93D3
:103BA00031D341F78ED4D9D43ED0E952F84F0491A5
:103BB00022D539D0E852F84F04919FD210E0D3D4E7
:103BC000ABD6A7C3102F14960C9321D049F319D06C
:103BD0001ED031F3FCCF21D014D00ED0EA52F84FD2
:103BE00004910023E9F613960D91D9CF1CD0EA5227
:103BF000F84F0491FADEE5CF149703E0109FF0012F
:103C0000089514960C9103950C93102F0895F4DFEA
:103C1000E752F84F049100230895FBD4AFEFB2E0D0
:103C2000A00DB11D0895ECD41481E7CF57D549F00C
:103C30002ED4EEE1F1E04AE038D44093600301C0B5
:103C40003FD428D409F46AC0102F1A9539F01A9578
:103C5000E9F01A95D9F01A9559F05CC0A0E6B3E0E6
:103C600000916003002309F492C00A950C9352C09E
:103C7000A0E6B3E00C9103950C931A970C3008F46E
:103C800049C08D010E94E71128D581C0023011F48E
:103C90000FEF01C001E011D43091600323E0329FA7
:103CA000E6ECF0E0E00DF11D329614913197019FA2
:103CB0000491002359F00A9591F00A95A1F00A9514
:103CC000B1F00A95C1F00A95D1F01CC0102C110C6E
:103CD000110861D0000D111D1C930E9313C0129694
:103CE0005DD012970FC0139659D013970BC014963E
:103CF00055D0149707C0159651D0159703C0169646
:103D00004DD01697002012F021E001C020E08D0177
:103D10000E94771177D209F093CFD3D3CCD330E27E
:103D200024E04D915C91FDD140915803F2D1409136
:103D3000590338D030E222E040915A0358D411E0C0
:103D4000CDD300938F025AD240915B0350D414E03C
:103D5000C5D30093920252D240915C0348D417E03D
:103D600057D200915F03002311F00EEE01C000E274
:103D7000009396021091600340DFEA53FF4F1491C5
:103D8000B3D4212F2F7012951F700DE0C8D5C1C27A
:103D900022E04CE350E00D911C9108950C91000D30
:103DA0000C93089524D419E000E033C2DCD566CE2C
:103DB00064979E01265F3F4FE2EBF0E089014AE005
:103DC00050E00E94A22D8E014AE00E94A22DC5D390
:103DD00012D2AE01465F5F4F60E00FD40CD2AE014D
:103DE00060E001E0B0DE0E94451A6496089501C0CB
:103DF00067D350D329F00130B1F004D2C9F761D3B1
:103E0000ACD31BD2023058F00AE40ED002D20BE43D
:103E100093D1ECEBF1E058D11FE001E002C00CE4DB
:103E200003D0F7D179D5089568D111E0E6D330E019
:103E300028E0E8EBF1E048D11FE000E008956CD203
:103E40008A932A97A1E3B3E02ED219F182D131F0FF
:103E50000A9521F00A9539F0025069F40EE111E05B
:103E60000E94340A0CC00EE111E00E941E0A20E0FC
:103E70001ED1238306C00EE111E00E94370A17D13C
:103E8000338300E00093490321E02483058301C0CC
:103E900017D300D3D1F1102F1A9529F01A9561F09C
:103EA0001A9551F02FC016D42581222309F4F7C0AA
:103EB000022F0A95058326C0023011F44FEF01C08E
:103EC00041E01FD191F4242F342F330F330B47E0FF
:103ED000439F502D429F510D652F660F660BEED00C
:103EE000000D151F261F361F08C0542F550F550BE8
:103EF000E5D0040F151F251F351FDDD02283338326
:103F000001E004837FD121F6DCD200914903013026
:103F100009F4C5C01ED131F00A9521F00A9539F097
:103F2000025069F4D6D00E945D0A82E00CC0D2D360
:103F3000208131818E010E944A0A84E004C0C9D0E8
:103F40000E942F0B81E0DDD0C5D3E9F4B8D04F81BA
:103F5000041B1040204030400D931D932D933C9343
:103F600013970A5F1F4F2F4F3F4FFD0104831583A7
:103F7000268337834D915D916D917C9113978E01CE
:103F80000E945D0A0BC0A0D04D935D936D937C930E
:103F90001397FD014483558366837783DED2E4D48F
:103FA000035020F00A9511F00A9531F496D0B9D05B
:103FB0004A81AFD04B81F6DED7D431F0025099F070
:103FC0000A95C1F00A9511F530E222E04C810FD339
:103FD0001CE0EADE0AE300938A0210D140E007D336
:103FE0001FE0E2DE13C00BE20093880207E30093B8
:103FF0008A020CC072D0D7D413E0D6DE0A8110E05A
:10400000025B1F4F6FD025E011E0F7D200915A03F9
:10401000002321F400914903002369F4282F8D0126
:104020000E94F30D002319F000E000935A030EEEF6
:1040300000939C0233C0033019F402E090D22DC0EB
:1040400024D1053090F00CE458D011E08CD2FD0161
:1040500004891589268937894CE3C9D20E94742DB9
:10406000A801B90130E028E016C0E7D0023078F0AE
:104070000DE443D065D016D0CAD00EE410E032D0A3
:1040800028E05ED0408951896289738904C00CE4BC
:1040900053D0FD0107D01FE0BBD043D428D02A96CF
:1040A000899137C14485558566857785089512D3F2
:1040B00002D0228308950083118308950BD30081D9
:1040C0001181228133810895408151816281738100
:1040D000089500D3F9DF8E01089530E224E048818D
:1040E000598108950E943226A801622F0895FCD2BA
:1040F00020E010E00CE00C946B1510E0F3DF20E002
:10410000089530914A0325E0329F7BD224812330E9
:1041100008956DD216E00DD00093840230E322E0C2
:10412000089541D413E005D00093810230E322E0EA
:1041300008953ADE0DE20895E0DF06D028E0089504
:1041400003D027E0FD01089511E001E057D230E0EF
:1041500008959BD002500895A6D011F000E08CD0B5
:1041600099D139F04FD021F0ABD1002311F0FACF23
:10417000A8D1F3D1DAD329F00A9599F00A95F9F08C
:104180000AC00E94EB0D002331F00E942C080E940F
:104190006A0C01E071D003E02ED20EEE00939C0277
:1041A00024C00E94EB0D0023B1F30E945F0C00239A
:1041B00091F70E94DE19002371F302E0EBCF0E9419
:1041C000D4190023B9F01DD001E015D2E9E7F2E0DF
:1041D00000E3028F038F0AE3048F03E028D50ED09B
:1041E00048EE53E065D11AE013D07ED204D00CE043
:1041F0000C946B1543CC20E010E0089530E322E0EE
:104200000895BFCB00915503002300E0089516E008
:1042100001E00C940B1447D021F0009128010F5DB0
:104220002BD0A6CC32D00E9465119DD386CC3BD03A
:1042300019F003D0035C20D09BCC009104020895B8
:1042400024D0009304020FD08ED377CC2CD021F051
:10425000009105020D5B10D08BCC0FD400930502AA
:1042600002D081D36ACC0C945C081DD021F000915F
:1042700007020A5B01D07CCCB5D1C3D10483089579
:1042800004D0009307026ED358CCC3D1BAD10481B5
:10429000089509D039F000910A02000F00E0001FD4
:1042A000055BEADF65CC00914C03002308953DD304
:1042B000E7E0F2E0038111F0006801C00F770383AB
:1042C00051D33BCCF0DF21F000910B02025BD4DF35
:1042D0004FCC22D0A7E0B2E0F801248120930B025A
:1042E00025813681FD0125833683F80127813085BC
:1042F000FD0127833087F80121853285FD01218763
:104300003287F80103851485FD01038714872AD3BA
:10431000E4D1A991B9910895BA93AA930895F2D2DC
:10432000C2DF79F0B4D027E032E0F9014FE0BDD030
:10433000ACDF00935A0340936503002311F425C0BA
:10434000BFD0A8D009F467C0102F1A9539F01A957C
:10435000F9F01A95E9F01A9549F059C0BBD10785D3
:10436000002309F490C00A95078751C0B3D107858F
:104370000395078700915A03013019F485D008305E
:1043800020F482D0003108F442C081D0A2DF7BC08B
:10439000023019F40FEF1FEF02C001E010E08DD0E2
:1043A00060916503462F437052E0459FF001E6514E
:1043B000FF4F45915491509F502D419F500D409F6C
:1043C000402D510D6695669539F06A9539F06A95DC
:1043D00039F06A9539F008C0159605C0179603C0E4
:1043E000199601C01B969D01F90100811181000DF4
:1043F000151F61DE0081013A154048F0413000E0B0
:1044000050401CF000EA15E001C010E054DEFADE76
:1044100009F096CF56D04FD037D0083028F40EE5AB
:1044200055D0059617960AC000915A03023011F430
:104430000FE501C000E64AD009961B9630E22ED067
:1044400037D013E04BD00093910230E327D0AAD2AB
:10445000DEDE0DE20093950230E29ADC119728D05F
:104460001BE03CD00093990230E392DC9BD21EE02B
:104470004ED30AD00770F0E0E02FEE50FF4F2491AA
:1044800011E00DE04CD243C200916503089506E5AA
:1044900013E00895009153030023089522E04CE3B4
:1044A00050E0FC0100811181089550E00C94972D9B
:1044B000B8D2A80178C20E94A413A6E5B3E008957B
:1044C00003D00093530308950C94151303D096D092
:1044D000CD01089512DE10E000E0089599DE0AE3B0
:1044E0000895E1DE51F01091060220914A0305E0A3
:1044F000209F87D0148301C0E3DFCCDFD1F00A9581
:1045000059F10A9549F00A9561F00A9579F4BDDEF2
:1045100000930602A8DE11CB78D0023038F00A955D
:1045200004C073D00F3F11F0039504836BDE21F7B5
:10453000C8DF13D00CE15FD00BE511D061D014813E
:10454000109F7BDE033020F40EE1000E00E0101E11
:1045500030E024E0A00109D008950C94A41310E0E9
:10456000C1DD2FE012E001E049C01DD21CE0CFD236
:10457000BFDD00E000935203089595DE51F00091F5
:10458000090230D04FD30483053018F4148301C0DE
:1045900097DF80DFD1F00A9521F10A9549F00A955D
:1045A00061F00A9579F471DE0093090291D0C5CAD1
:1045B0002CD0063038F00A9504C027D00C3310F404
:1045C000039504831FDE21F77CDFC7DF0DE513D0E1
:1045D0000CE5C5DF30E024E013D0448108D01BE0B7
:1045E000C6DF089520914A0315E0219F089550E009
:1045F00060E070E0089581DD10E000E00C94B613F7
:1046000008D0F001E150FD4F089503D00BD3048191
:10461000089510914A0305E0109F08955FD061F05E
:1046200000E00093560301E00093570300910A0253
:104630000093580301C044DF2DDF69F10A9539F07A
:104640000A9509F10A95F9F00A9559F021C042D06E
:1046500000810023E1F10A95008301810695018321
:1046600017C038D00081039500830181000F0183BA
:1046700000915603073060F00091580300930A023E
:1046800027D02BD024C026D001811281102712837D
:10469000B9DD89F616DF61DF0BE2ADDF21E0AAE7C5
:1046A000B2E007E010915803122311F01EE501C09B
:1046B00010E254961C935297220F0A9599F714D042
:1046C00020915603220F239511E00DE028D121CE31
:1046D0000C946508E6E5F3E008952FCABA93AA930F
:1046E00000914C030023089550E040E031E008952C
:1046F00009D110914C03112309F444C0EBDF18E0F9
:1047000020E02083208731961A95D9F720936703FC
:10471000002321F103E000936603B9DE0E94BF0885
:10472000002309F097C0B6DE31F000915503002355
:1047300099F08DD2D1F711DF00916603002351F07B
:104740000A9509F4A9C00A9509F4A8C00A9509F4C4
:10475000A7C0A8C007E3A5C076D2EDCF209366031B
:1047600011C000E020E0020F111F4AE050E00E945B
:10477000502D405DFC01408300915503002361F3FF
:1047800000E09EDE209153032223A9F2022F0A9516
:1047900049F00A9509F46EC00A9509F46BC00A95B0
:1047A00069F0EACF98D0002309F494C020E09BD0B0
:1047B000208390DF01890A95018BDECF7EDE8BD0CE
:1047C000073028F490D00081002309F04FC00091F9
:1047D0006603002339F00A9579F00A95E1F00A950D
:1047E000A1F10EC0A2D019F00A9521F005C085D024
:1047F00019F43AC07DD0C1F1FD0100890395008B09
:10480000FD0108E01081108710E011930A95D1F79F
:1048100010936703B1CFFD0108E0108120851217C6
:1048200019F531960A95C9F780D019F00A9529F043
:1048300007C08D010E94DD0803C08D010E94E008C1
:104840004CDF48C03DDE002319F0DCDCD9F739DE4F
:1048500054D011F002E003C04BD021F001E00093EE
:10486000510338C00E94B8087CD934C0FD010189C9
:104870000395A2CF30D010E086E593E0800F911F22
:10488000FC010081223011F429E001C021E0003355
:1048900008F467CF005367CF08E303C009E301C002
:1048A00001E6A9DE24E017D0002339F0402F1AE2F8
:1048B00015D0148B23954A95D9F715D01081112363
:1048C00011F0012F01C000E209D0048B0DDF11E0CF
:1048D0000DE025D01CC0009167030895F0E0E22FA1
:1048E000E758FD4F0895F0E0E02FEA5AFC4F089595
:1048F0008D010E94D008002308958D010E94BF08F9
:1049000000230895BA93AA939A938A93089589915C
:104910009991A991B9910895E7DE6DDC0CE00E94B0
:104920006B1500E0009352030895AFDC0023089557
:1049300000E0DECE01E0DCCE17D039F00A9541F080
:104940000A9549F00A9551F00BC00E94770808C0FB
:104950000E94880805C00E948C0802C00E94B3080B
:1049600002D0EBC8B5DE8AC890DC0A9508959A9308
:104970008A93F3DD05E73FDE0E945509C8013EDC5E
:104980004ED011D01FE044DC0EE200939A0230E0DA
:1049900022E044E650E08C0144D0A801E6DD899194
:1049A000999108953ED060E070E008955A924A923D
:1049B000AA938A93802FA12F00E1809F09E7402EC0
:1049C00002E0502E400C511C0BE5F20104830DE572
:1049D000038B0EE0A09F800122D0A03610F40F3090
:1049E00008F00EE020E0E42D201710F41FEF01C0C6
:1049F0001DE21583239531962E30B0F30C3050F420
:104A000005E2F201028B30E222E04A2FF0DD1DE0E8
:104A1000082FFFDB8991A99149905990089544E6A8
:104A200050E00C94382D01E063D801C049DD32DD3F
:104A300039F0013011F400E05BC8E4DBB9F741DD87
:104A40008CDD0E94181C102F00E0B0DFF6DB033075
:104A500028F00E94201C102F01E0A8DF48DB0C94F6
:104A6000C11C21DC21F0009108020D5A05DC80C830
:104A700004D00093080276DF60C857DF11F001E030
:104A8000089500E0089548DC68DD04E7B4DDA9E797
:104A9000B2E0ECEEF1E000E1178154961C935397DD
:104AA00031960A95C9F738DF34CC4A922BDF55DDB1
:104AB000442480E090E0A0E0B0E037DF39F00A95D0
:104AC00051F00A9569F00A9581F015C00FE6402E65
:104AD0000E94EC080EC000E7402E0E94F00809C0BA
:104AE00001E7402E0E94F40804C002E7402E0E9415
:104AF000F808C801D901042D7EDD30E02AE0AC01C0
:104B0000BD011FE004D0F4DA02DF4990089580DB94
:104B100050E040E031E0089592D009F482C00E9454
:104B20009D13002309F47DC000914E03002351F032
:104B300006E07DD0012B31F480D081D009F471C022
:104B40000E940B1D07E073D0012BB1F472D009F461
:104B500074D075D009F465C000915403002349F066
:104B600000E0009354030E944A13FDDE68D009F46C
:104B700058C00E940B1D71D000915403002309F00E
:104B800050C065D081F020914F033091080211E0B0
:104B90003127232B19F4013009F055D0109352031B
:104BA00010934F032EDB009152030023C9F100E163
:104BB000009355033ED0C1F000915103002381F4CE
:104BC00000914B03083411F001E001C000E00093B4
:104BD0004C0308E400934B0301E08ADD2AD021F066
:104BE000009151030023B9F014DD1CD01081009115
:104BF0004B03011711F001E001C000E000934C03EA
:104C000010934B0301811281202F212B19F0F80101
:104C1000099501C0CDD800915303013009F4A3DEFA
:104C200012D00895EFEFF2E0E00DF11D08950C941D
:104C3000411A00914F03002308950C94271D009101
:104C40004D030023089500E000935303089500E00E
:104C50003BDC009353030023089528E833E107E089
:104C60000C94451A20911602222369F444E152E083
:104C7000000F111FF801E650FF4F05911491040F2A
:104C8000151F20E8089500E010E020E00895BA9391
:104C9000AA9300911702002349F412E000914A03FD
:104CA0000E94DB1C01E02DC00E940F1D00915303E8
:104CB000002341F00A9539F10350B1F702E00E9458
:104CC000F51C21C000911702013091F400E110E0C1
:104CD000E8E1F2E030E0ADE7B2E00E94F82D00E15B
:104CE00010E0E8E2F2E030E0ADE8B2E00E94F82D3A
:104CF00050E040E031E020E010E00CE00E946B1555
:104D000000E000935203A991B991089500914C03DA
:104D1000002359F0009117020A5A20914A0315E026
:104D2000219FF001E150FD4F04830C94B81D1091B8
:104D30004A0305E0109FF001E150FD4F048100930C
:104D400017020E946F080C94B61D088019802A80F3
:104D50003B800023E9F00A9581F0025019F00A9592
:104D600039F00EC0401551056205730530F010C0D2
:104D7000041615062606370658F4800191010AC06C
:104D8000400D511D621D731D76956795579547958A
:104D90008A019B0124960895BA93AA93D80101E051
:104DA000EA2FF12F018300E0028301E313E0F80111
:104DB0004481558166817781FD01438354836583F6
:104DC000768379D257835087518752874091490320
:104DD000433039F1F90140814A95445028F04A9511
:104DE00099F04A9589F01DC0F8014089518962897E
:104DF00073897A936A935A934A9344855585668555
:104E00007785F9012FD108C0F80104891589268911
:104E100037894CE30E94742DFD0107831087218799
:104E20003287DDC37A923AD2D801022E332351F46D
:104E300000E0EA2FF12F038704870587068701E04A
:104E400001832EC0432E55248A019B01040D151D9C
:104E5000251D351D0150104020403040FD011180BE
:104E6000112059F0438054806580768040165106A9
:104E700062067306B9F080E08183E1E3F3E04083EA
:104E80005183628373830483158326833783202DA4
:104E90008F010E94F30D002319F001E0FD01028350
:104EA0008991C9C20781108521853285D6D0F8CF76
:104EB000EBD0C801D9010C910A9589F00A95D9F077
:104EC0000A9509F10A9509F452C00A9509F469C0D6
:104ED0000A9509F476C00A9509F48AC09DC0C4D029
:104EE00009F071C0A2D00681178120E02A93A5D0D5
:104EF0004481558104C0B8D009F07CC0A2D0DCD177
:104F0000EA2FF32F5CC094D0FD014280E09125018F
:104F10000E1B10402040304047E0449E212C220CC4
:104F20002208A801B90140195109620972094420F7
:104F300011F037E001C03E2F22E075D0FC01018165
:104F4000002309F46DC0FD010281002309F068C04F
:104F500078D0B2D147D3F9DEFC0168D2400F511F9F
:104F6000621F731F438754876587768759C07CD03B
:104F700069F00EE111E00E941E0A31E0FD0142815C
:104F8000041B1040A80198D124E037C04ED0048DF6
:104F9000158D268D378D50D0408D518D628D738D3E
:104FA0000DC0ECEBF1E0008111812281338144D00E
:104FB000E8EBF1E04081518162817381FD0152D0C3
:104FC00027C052D039F00EE111E00E94370A50D0CC
:104FD00021E013C02AD0008511854CE350E00E94E7
:104FE000382D20E0FC01038714872587268712C00F
:104FF0003BD029F01DD03CD022E015D011C015D0F7
:1050000002891389248935894CE355D10E94742D76
:10501000FC0123D001E003C001E0E82FF12F018360
:10502000DCD2499008958C01FDCEE8E9F1E00895C5
:105030000EE111E00C94340A3A932A931A930A93DE
:105040000895E8E9F1E00089118920E02A932A9384
:105050001A930A93468557850895038714872587F1
:1050600036870895018171CEF901028100230895E8
:10507000A801B90131E0FD010280401950406040B3
:10508000704008956A925A924A92BA93AA939A9358
:105090008A930895FADF902F812F002351F00A950B
:1050A00079F00A9581F10A9571F10A9509F453C0D6
:1050B0005BC0112309F458C00EE721D400E053C0AF
:1050C000F4D011E06CD05CD06AD00093820230E260
:1050D00024E04D915C91F0D019E067D011E062D0EE
:1050E00000938F0242D051D05DD00093920241D004
:1050F00040912401E0D017E01CD48823A9F10FE7E8
:105100003BD000E025C0D1D011E046D039D044D00A
:10511000009382022ED044E650E00D911C910E9433
:10512000382DCAD017E041D01AE034D00AE30093FA
:1051300088021BD0C0D01DE02DD08823A9F0933069
:1051400011F401E80EC00FE7CED326E012E001E033
:10515000ECD300E806C0112339F001E80DD0E4D308
:1051600002E80AD001E0E1D338C203D04091230124
:10517000089530E322E00895B6D32FE012E00895B9
:1051800000937F02F6DF4091200150E060E070E084
:1051900014E0089500E048C1FDDF0FE20895FADF52
:1051A0000DE20895C6D30AE30895F4DF30E222E069
:1051B0004091220150E060E070E008956FD0D80186
:1051C000522E432E642E0C91065011F00A9511F4C4
:1051D00087E615C0EA2FF12F01810A9539F00A956B
:1051E00039F00A9539F00A9539F008C083E607C00E
:1051F00084E605C085E603C086E601C082E672D378
:10520000242D49D0662009F444C00C910A9569F018
:105210000A9569F00A9569F00A9569F00A9569F0AE
:105220000A9519F00A9519F009C088E607C089E6C1
:1052300005C08AE603C08BE601C08CE653D3242D5B
:105240002D5F29D0FD010281002319F10C91053059
:1052500001F12DE2E1E8F2E010E0E40DF11F00E1E0
:10526000509ED9D02083FD010281A80125D00436AB
:1052700020F030E023E007E008C00A3030E018F00A
:1052800022E006E002C021E005E0400E142D052DCD
:10529000CBD089913CC311E0052D47C36A925A9245
:1052A0004A92BA93AA938A930895AEE1B1E030E2AC
:1052B00022E04091210150E060E070E00895FA9210
:1052C000EA92DA92CA92BA92AA929A928A927A92BE
:1052D000D9DE219768833801D9014A0190E044243E
:1052E000552410E080E0AA24BB24EE24CC24FF2423
:1052F000DD24E02FF72D00810A9539F00A9581F021
:105300000A95E9F00A95F9F023C00FE0402E06E077
:10531000502E81E0A42CB02EF39409E0D02E18C0BA
:1053200091E006E0402E07E0502E11E081E00FE012
:10533000A02EB52C08E0E02EC394DA2C09C091E031
:105340006DD0D42C05C06AD081E0A42CB02EC12E23
:10535000F9010081002321F1552011F1112359F0A9
:10536000123011F441E001C040E030E0292F830108
:105370000F5F1F4F23DF0881002359F01EEEEDE77A
:10538000F2E05524E40DF51D00E1909F44D0108318
:1053900007C030E0252DFD0149D0142D092F44D040
:1053A000F4010081002339F1BB2029F1CC2071F0F8
:1053B00002E0C01611F441E001C040E03E2D282F6C
:1053C00004E0600E00E0701E8301F8DE0881002317
:1053D00059F00EEEEDE7F2E0BB24EA0DFB1D10E103
:1053E000819F19D0008307C030E02B2DF4011ED01F
:1053F0001A2D082F19D05D2D4F2D7BD22196899122
:10540000999119D089909990A990B990C990D99003
:10541000E990F9900895E00DF11D08950FE0402EF8
:1054200008E0502E12E008950C940B144385548527
:105430006585768508956BD27990089526DE009172
:1054400038020023E1F4009151030A9521F00A95F6
:1054500039F414E001C01DE100914A030E94DB1CF5
:1054600001E000935203A6C0B1D019F00250E1F060
:1054700004C001E0048300934C030E940F1D1BD263
:10548000002321F10A9509F495C00A9569F30A955C
:1054900019F00A9571F0F1CF99D011F00A95E7CF84
:1054A00002E0048301E0E7CF00E0F001E150FD4FAE
:1054B000F8CF009151030A9529F00A9509F07AC0B6
:1054C00004E001C00DE10E94F51C74C0FFD119F089
:1054D0000A9521F006C0AFE3B2E005C0A6E4B2E051
:1054E00002C0A8E3B2E000914C03002329F10C9123
:1054F000002329F077D0002311F001E001C000E083
:105500000093560300E000935703009358030C9157
:10551000002341F0033031F0FD010481002311F03C
:1055200001E001C000E00093650300E00093660322
:1055300000936703009349030E94A41310E00C91A9
:10554000A9DD0091490386E593E0013059F100237C
:10555000B1F0AAD1002331F000915803002311F0DB
:105560002AD009C000916503002331F00091670340
:10557000002311F025D010DC00E00093490394D102
:10558000002331F018D094DC00915703002351F030
:1055900000916503002341F013D08ADC009166037B
:1055A000002311F461E001C060E045E653E09C0196
:1055B0008D0185DE12C09D012F5F3F4F8C01089544
:1055C0009D012C5F3F4F05E613E0089586D1EFEF74
:1055D000F2E021DF04810023089589919991A99136
:1055E000B9910895FD01018108954CDD6FD119F045
:1055F0000A9529F008C00FE3402E02E007C006E438
:10560000402E02E003C008E3402E02E0502E86E563
:1056100093E000914C03002341F08C01F20173D11F
:1056200040935D03DC0111960CC039D1D8F7DC0141
:10563000149607C001E000935D03DC0111960E94FF
:105640000F1D39D1002309F492C000E010915303DB
:105650001A9541F01A9509F11A95F9F01A9509F47D
:1056600050C012C024D109F417C1045021F00A958A
:1056700009F3035071F40C91065011F00A9549F4A6
:10568000FC010781025007830AD1B8F6DC011496A9
:10569000D6CFFC0107810A95F6CF09D169F00250F7
:1056A00089F00A95E9F00A9509F1025059F00A9536
:1056B000B9F00A95D9F0E8CF01D1F6D02ED14093B8
:1056C0005603E2CFF8D0023011F427E001C021E008
:1056D0000C9110E0020F111F48E023D14C93D4CF5E
:1056E000EDD080DF1AD1FD014183CECFE4D002306E
:1056F00011F40FEF01C001E0FD011281100F1283C0
:10570000C3CF10915603112329F0135011F404E074
:1057100001C008E010915D03125039F01A9589F02C
:10572000135019F01A9569F013C01C91112329F038
:10573000165051F01A9541F00BC0FC0117811D5F06
:105740000AC01C91153021F4FC0117811E5F03C0B3
:10575000FC011781139517831781011708F09CC06E
:105760008201D1D00E946F080E94B61D95C00E9490
:10577000A41380E0442466249AD099F00A95A9F0F5
:105780000A95B9F00A95E1F10A9509F451C00A9514
:1057900071F00A9571F00A9599F10A9509F448C0DB
:1057A00067C011E081D076DC74C081E863C082E814
:1057B00061C00C91002379F00A9579F00A9579F08F
:1057C0000A9579F00A9581F00A9589F00A9591F089
:1057D0000A9599F04DC08EE74DC083E40CC083E478
:1057E0000DC083E407E422C083E408E41FC083E41F
:1057F00004E41CC089E405E419C089E406E416C089
:1058000083E8F0DE002349F00A9549F00A9549F053
:105810000A9549F00A9549F02BC004E807C005E84D
:1058200005C006E803C007E801C008E8402E22C012
:1058300009E8402E30E223E0FD0142813CDD1DE01D
:1058400078D00C910A9559F00A9559F00A9559F0BB
:105850000A9559F0025019F00A9519F009C008E6A6
:1058600005C009E603C00AE601C00BE6602E07C0CA
:10587000882319F0082F43D057D0442051F0042D2D
:105880003ED055D0062D662021F02DD02FE011E01E
:105890004ED050E040E02DD08991999138C00091D0
:1058A0005D0305500450089500915603089500913A
:1058B0005D0300230895009153030895009153035D
:1058C000023011F424E0089521E0089506D0F0019B
:1058D000E150FD4F04810A95089510914A0305E0B7
:1058E000109F0895082F10E00E943226A801622F11
:1058F000089531E020E010E00CE00C946B15F3DF2C
:1059000020E010E0089547E050E00C94972DA99115
:10591000B991499059906990089510E0020F111FB4
:1059200045E050E00C94502D00E00C94B61301E0DB
:10593000FCCF01E079CDF89400E800BF00E004B9A5
:1059400001EC05B90EE304B900E007B900EC08B9B1
:105950000FE307B900E00AB903EF0BB90CE00AB98D
:1059600000E00DBB00936E0000936F000093700089
:105970000FE80093640000E003BF0E94ED067894F6
:105980000895D9DF0E940E0800E010E008950C94FD
:105990003C2E05EC0DBF03E00EBFC6ECD4E00E9428
:1059A000D22D002311F00E94222E0E94C12C0E94B1
:1059B000282D0C94C72CF999FECF08954F5F5F4FA7
:1059C000FADF41BD52BDF89A0895FADF00B5089597
:1059D000F7DF00B5F3DF10B50895F2DF00B5EEDFB5
:1059E00010B5ECDF20B50895EBDF00B5E7DF10B5AB
:1059F000E5DF20B5E3DF30B508954F5F5F4F41BD70
:105A000052BDF894FA9AF99A0FBE08950FB6D3DFF3
:105A100000BDF5CF0FB6CFDF00BDF1DFCCDF10BD8D
:105A2000ECCF0FB6C8DF00BDEADFC5DF10BDE5DF94
:105A3000C2DF20BDE2CF0FB6BEDF00BDE0DFBBDFBF
:105A400010BDDBDFB8DF20BDD8DFB5DF30BDD5CF7F
:105A50000C94C72C0024E8E0EA9532F0001F001CEB
:105A60000416D0F3041AF8CF001F402D00950895B6
:105A700000241124EFE0001F111F001C111C04164C
:105A8000150610F0041A150AEA95AAF7001F111F4F
:105A9000A0010095109508955195419550400895A5
:105AA000FF27552312F4F160F7DF112312F4F0956C
:105AB00007D00E94382DF0FD03D0F1FDEDCF089501
:105AC00011950195104008954A952AF0000F111F75
:105AD000221F331FF9CF08954A952AF0369527954E
